:100000000C9434000C943E000C943E000C943E0082
:100010000C943E000C943E000C943E000C943E0068
:100020000C943E000C943E000C943E000C943E0058
:100030000C943E000C943E000C943E000C943E0048
:100040000C943E000C943E000C943E000C943E0038
:100050000C943E000C943E000C943E000C943E0028
:100060000C943E000C943E0011241FBECFEFD8E04C
:10007000DEBFCDBF0E9440000C9458000C940000DD
:1000800080E284B987EC8AB988E38BB931E099B111
:1000900089B129B125B18295817093FB992790F997
:1000A0009327892B8295880F807E822B85B9EFCF8D
:0400B000F894FFCFF2
:00000001FF
